:200100000000000000000000000000000000000000000000000000000000000000000000DF
:200120000000000000000000000000000000000000000000000000000000000000000000BF
:2001400000000000000000000000000000000000000000000000000000000000000000009F
:2001600000000000000000000000000000000000000000000000000000000000000000007F
:2001800000000000000000000000000000000000000000000000000000000000000000005F
:2001A00000000000000000000000000000000000000000000000000000000000000000003F
:2001C00000000000000000000000000000000000000000000000000000000000000000001F
:2001E0000000000000000000000000000000000000000000000000000000000000000000FF
:20020000EB0190B8FF108BE00E588ED89090908BC8BE0502B090CDBEBE0C02B091CDBEBE7B
:200220001302B092CDBEBE1A02B093CDBEBE2102B094CDBEBE2802B095CDBEBE2F02B09697
:20024000CDBEBE3602B097CDBEBE3D02B098CDBEBE4402B099CDBEBE4B02B09ACDBEBE52B3
:2002600002B09BCDBEBE5902B09CCDBEBE6102B09DCDBEBE6902B09ECDBEBE7102B09FCD6E
:20028000BEB011BAA001EEB090BAA201EEB010EEB001EEB011BAE001EEB098BAE201EEB0F1
:2002A00004EEB001EEB000EEBAA201EEFBB8FF00B9FF00CDAA4875F8CDACBB7902CDAFB44F
:2002C0000BCDA13CFF7403EB0990B408CDA13C1B7403FBEBD8CDA39090909090CDACBB7DC8
:2002E00002CDAFB220B402CDA28AD5CDA2B220CDA28AD1CDA2B020BAA001EEB020BAE0012C
:20030000EECF909090B14DB530EBD190B14DB531EBCA90B14DB532EBC390B14DB533EBBC68
:2003200090B14DB534EBB590B14DB535EBAE90B14DB536EBA790B14DB537EBA090B153B53C
:2003400030EB9990B153B531EB9290B153B532EB8B90B153B533EB8490B153B534E97CFF35
:2003600090B153B535E974FF90B153B536E96CFF90B153B537E964FF9058504F03494E548F
:010380000379
:00000001FF
